{
	"data": {
		"bytecode": {
			"linkReferences": {},
			"object": "608060405234801561000f575f5ffd5b50604051611a4c380380611a4c833981810160405281019061003191906101d3565b335f5f6101000a81548173ffffffffffffffffffffffffffffffffffffffff021916908373ffffffffffffffffffffffffffffffffffffffff160217905550806001908161007f919061042a565b50506104f9565b5f604051905090565b5f5ffd5b5f5ffd5b5f5ffd5b5f5ffd5b5f601f19601f8301169050919050565b7f4e487b71000000000000000000000000000000000000000000000000000000005f52604160045260245ffd5b6100e58261009f565b810181811067ffffffffffffffff82111715610104576101036100af565b5b80604052505050565b5f610116610086565b905061012282826100dc565b919050565b5f67ffffffffffffffff821115610141576101406100af565b5b61014a8261009f565b9050602081019050919050565b8281835e5f83830152505050565b5f61017761017284610127565b61010d565b9050828152602081018484840111156101935761019261009b565b5b61019e848285610157565b509392505050565b5f82601f8301126101ba576101b9610097565b5b81516101ca848260208601610165565b91505092915050565b5f602082840312156101e8576101e761008f565b5b5f82015167ffffffffffffffff81111561020557610204610093565b5b610211848285016101a6565b91505092915050565b5f81519050919050565b7f4e487b71000000000000000000000000000000000000000000000000000000005f52602260045260245ffd5b5f600282049050600182168061026857607f821691505b60208210810361027b5761027a610224565b5b50919050565b5f819050815f5260205f209050919050565b5f6020601f8301049050919050565b5f82821b905092915050565b5f600883026102dd7fffffffffffffffffffffffffffffffffffffffffffffffffffffffffffffffff826102a2565b6102e786836102a2565b95508019841693508086168417925050509392505050565b5f819050919050565b5f819050919050565b5f61032b610326610321846102ff565b610308565b6102ff565b9050919050565b5f819050919050565b61034483610311565b61035861035082610332565b8484546102ae565b825550505050565b5f5f905090565b61036f610360565b61037a81848461033b565b505050565b5b8181101561039d576103925f82610367565b600181019050610380565b5050565b601f8211156103e2576103b381610281565b6103bc84610293565b810160208510156103cb578190505b6103df6103d785610293565b83018261037f565b50505b505050565b5f82821c905092915050565b5f6104025f19846008026103e7565b1980831691505092915050565b5f61041a83836103f3565b9150826002028217905092915050565b6104338261021a565b67ffffffffffffffff81111561044c5761044b6100af565b5b6104568254610251565b6104618282856103a1565b5f60209050601f831160018114610492575f8415610480578287015190505b61048a858261040f565b8655506104f1565b601f1984166104a086610281565b5f5b828110156104c7578489015182556001820191506020850194506020810190506104a2565b868310156104e457848901516104e0601f8916826103f3565b8355505b6001600288020188555050505b505050505050565b611546806105065f395ff3fe608060405234801561000f575f5ffd5b5060043610610091575f3560e01c806353fa2e641161006457806353fa2e641461011e5780636428a4861461014f578063a63858031461016b578063f851a44014610187578063ff981099146101a557610091565b80630e5a7501146100955780632d35a8a2146100b35780633477ee2e146100d1578063462e91ec14610102575b5f5ffd5b61009d6101d5565b6040516100aa9190610b04565b60405180910390f35b6100bb610261565b6040516100c89190610b3c565b60405180910390f35b6100eb60048036038101906100e69190610b90565b610267565b6040516100f9929190610bbb565b60405180910390f35b61011c60048036038101906101179190610d15565b61030d565b005b61013860048036038101906101339190610d15565b610439565b604051610146929190610d76565b60405180910390f35b61016960048036038101906101649190610d15565b610489565b005b61018560048036038101906101809190610d9d565b61067d565b005b61018f61088e565b60405161019c9190610e36565b60405180910390f35b6101bf60048036038101906101ba9190610b90565b6108b2565b6040516101cc9190610b3c565b60405180910390f35b600180546101e290610e7c565b80601f016020809104026020016040519081016040528092919081815260200182805461020e90610e7c565b80156102595780601f1061023057610100808354040283529160200191610259565b820191905f5260205f20905b81548152906001019060200180831161023c57829003601f168201915b505050505081565b60035481565b6002602052805f5260405f205f91509050805f01805461028690610e7c565b80601f01602080910402602001604051908101604052809291908181526020018280546102b290610e7c565b80156102fd5780601f106102d4576101008083540402835291602001916102fd565b820191905f5260205f20905b8154815290600101906020018083116102e057829003601f168201915b5050505050908060010154905082565b5f5f9054906101000a900473ffffffffffffffffffffffffffffffffffffffff1673ffffffffffffffffffffffffffffffffffffffff163373ffffffffffffffffffffffffffffffffffffffff161461039b576040517f08c379a000000000000000000000000000000000000000000000000000000000815260040161039290610ef6565b60405180910390fd5b60035f8154809291906103ad90610f41565b919050555060405180604001604052808281526020015f81525060025f60035481526020019081526020015f205f820151815f0190816103ed9190611128565b50602082015181600101559050507fe83b2a43e7e82d975c8a0a6d2f045153c869e111136a34d1889ab7b598e396a36003548260405161042e9291906111f7565b60405180910390a150565b6004818051602081018201805184825260208301602085012081835280955050505050505f91509050805f015f9054906101000a900460ff1690805f0160019054906101000a900460ff16905082565b5f5f9054906101000a900473ffffffffffffffffffffffffffffffffffffffff1673ffffffffffffffffffffffffffffffffffffffff163373ffffffffffffffffffffffffffffffffffffffff1614610517576040517f08c379a000000000000000000000000000000000000000000000000000000000815260040161050e90610ef6565b60405180910390fd5b6105208161091f565b61055f576040517f08c379a00000000000000000000000000000000000000000000000000000000081526004016105569061126f565b60405180910390fd5b60048160405161056f91906112c7565b90815260200160405180910390205f015f9054906101000a900460ff16156105cc576040517f08c379a00000000000000000000000000000000000000000000000000000000081526004016105c390611327565b60405180910390fd5b60405180604001604052806001151581526020015f15158152506004826040516105f691906112c7565b90815260200160405180910390205f820151815f015f6101000a81548160ff0219169083151502179055506020820151815f0160016101000a81548160ff0219169083151502179055509050507fa10c6ba5c7ce6da8ba832add5620aa12208520dacb5c93e479f9c1b56bb915b4816040516106729190610b04565b60405180910390a150565b6106868261091f565b6106c5576040517f08c379a00000000000000000000000000000000000000000000000000000000081526004016106bc9061126f565b60405180910390fd5b6004826040516106d591906112c7565b90815260200160405180910390205f015f9054906101000a900460ff16610731576040517f08c379a00000000000000000000000000000000000000000000000000000000081526004016107289061138f565b60405180910390fd5b60048260405161074191906112c7565b90815260200160405180910390205f0160019054906101000a900460ff161561079f576040517f08c379a0000000000000000000000000000000000000000000000000000000008152600401610796906113f7565b60405180910390fd5b5f811180156107b057506003548111155b6107ef576040517f08c379a00000000000000000000000000000000000000000000000000000000081526004016107e69061145f565b60405180910390fd5b600160048360405161080191906112c7565b90815260200160405180910390205f0160016101000a81548160ff02191690831515021790555060025f8281526020019081526020015f206001015f81548092919061084c90610f41565b91905055507f777e12406713e556f995ae7467576ea751d01f243ff84668ef43b36634f3fa888282604051610882929190610bbb565b60405180910390a15050565b5f5f9054906101000a900473ffffffffffffffffffffffffffffffffffffffff1681565b5f5f821180156108c457506003548211155b610903576040517f08c379a00000000000000000000000000000000000000000000000000000000081526004016108fa9061145f565b60405180910390fd5b60025f8381526020019081526020015f20600101549050919050565b5f5f8290505f6001805461093290610e7c565b80601f016020809104026020016040519081016040528092919081815260200182805461095e90610e7c565b80156109a95780601f10610980576101008083540402835291602001916109a9565b820191905f5260205f20905b81548152906001019060200180831161098c57829003601f168201915b505050505090508051825110156109c4575f92505050610a8f565b5f5f90505b8151811015610a87578181815181106109e5576109e461147d565b5b602001015160f81c60f81b7effffffffffffffffffffffffffffffffffffffffffffffffffffffffffffff1916838284518651610a2291906114aa565b610a2c91906114dd565b81518110610a3d57610a3c61147d565b5b602001015160f81c60f81b7effffffffffffffffffffffffffffffffffffffffffffffffffffffffffffff191614610a7a575f9350505050610a8f565b80806001019150506109c9565b506001925050505b919050565b5f81519050919050565b5f82825260208201905092915050565b8281835e5f83830152505050565b5f601f19601f8301169050919050565b5f610ad682610a94565b610ae08185610a9e565b9350610af0818560208601610aae565b610af981610abc565b840191505092915050565b5f6020820190508181035f830152610b1c8184610acc565b905092915050565b5f819050919050565b610b3681610b24565b82525050565b5f602082019050610b4f5f830184610b2d565b92915050565b5f604051905090565b5f5ffd5b5f5ffd5b610b6f81610b24565b8114610b79575f5ffd5b50565b5f81359050610b8a81610b66565b92915050565b5f60208284031215610ba557610ba4610b5e565b5b5f610bb284828501610b7c565b91505092915050565b5f6040820190508181035f830152610bd38185610acc565b9050610be26020830184610b2d565b9392505050565b5f5ffd5b5f5ffd5b7f4e487b71000000000000000000000000000000000000000000000000000000005f52604160045260245ffd5b610c2782610abc565b810181811067ffffffffffffffff82111715610c4657610c45610bf1565b5b80604052505050565b5f610c58610b55565b9050610c648282610c1e565b919050565b5f67ffffffffffffffff821115610c8357610c82610bf1565b5b610c8c82610abc565b9050602081019050919050565b828183375f83830152505050565b5f610cb9610cb484610c69565b610c4f565b905082815260208101848484011115610cd557610cd4610bed565b5b610ce0848285610c99565b509392505050565b5f82601f830112610cfc57610cfb610be9565b5b8135610d0c848260208601610ca7565b91505092915050565b5f60208284031215610d2a57610d29610b5e565b5b5f82013567ffffffffffffffff811115610d4757610d46610b62565b5b610d5384828501610ce8565b91505092915050565b5f8115159050919050565b610d7081610d5c565b82525050565b5f604082019050610d895f830185610d67565b610d966020830184610d67565b9392505050565b5f5f60408385031215610db357610db2610b5e565b5b5f83013567ffffffffffffffff811115610dd057610dcf610b62565b5b610ddc85828601610ce8565b9250506020610ded85828601610b7c565b9150509250929050565b5f73ffffffffffffffffffffffffffffffffffffffff82169050919050565b5f610e2082610df7565b9050919050565b610e3081610e16565b82525050565b5f602082019050610e495f830184610e27565b92915050565b7f4e487b71000000000000000000000000000000000000000000000000000000005f52602260045260245ffd5b5f6002820490506001821680610e9357607f821691505b602082108103610ea657610ea5610e4f565b5b50919050565b7f4f6e6c792061646d696e2063616e2063616c6c207468697300000000000000005f82015250565b5f610ee0601883610a9e565b9150610eeb82610eac565b602082019050919050565b5f6020820190508181035f830152610f0d81610ed4565b9050919050565b7f4e487b71000000000000000000000000000000000000000000000000000000005f52601160045260245ffd5b5f610f4b82610b24565b91507fffffffffffffffffffffffffffffffffffffffffffffffffffffffffffffffff8203610f7d57610f7c610f14565b5b600182019050919050565b5f819050815f5260205f209050919050565b5f6020601f8301049050919050565b5f82821b905092915050565b5f60088302610fe47fffffffffffffffffffffffffffffffffffffffffffffffffffffffffffffffff82610fa9565b610fee8683610fa9565b95508019841693508086168417925050509392505050565b5f819050919050565b5f61102961102461101f84610b24565b611006565b610b24565b9050919050565b5f819050919050565b6110428361100f565b61105661104e82611030565b848454610fb5565b825550505050565b5f5f905090565b61106d61105e565b611078818484611039565b505050565b5b8181101561109b576110905f82611065565b60018101905061107e565b5050565b601f8211156110e0576110b181610f88565b6110ba84610f9a565b810160208510156110c9578190505b6110dd6110d585610f9a565b83018261107d565b50505b505050565b5f82821c905092915050565b5f6111005f19846008026110e5565b1980831691505092915050565b5f61111883836110f1565b9150826002028217905092915050565b61113182610a94565b67ffffffffffffffff81111561114a57611149610bf1565b5b6111548254610e7c565b61115f82828561109f565b5f60209050601f831160018114611190575f841561117e578287015190505b611188858261110d565b8655506111ef565b601f19841661119e86610f88565b5f5b828110156111c5578489015182556001820191506020850194506020810190506111a0565b868310156111e257848901516111de601f8916826110f1565b8355505b6001600288020188555050505b505050505050565b5f60408201905061120a5f830185610b2d565b818103602083015261121c8184610acc565b90509392505050565b7f456d61696c206e6f7420696e20616c6c6f77656420646f6d61696e00000000005f82015250565b5f611259601b83610a9e565b915061126482611225565b602082019050919050565b5f6020820190508181035f8301526112868161124d565b9050919050565b5f81905092915050565b5f6112a182610a94565b6112ab818561128d565b93506112bb818560208601610aae565b80840191505092915050565b5f6112d28284611297565b915081905092915050565b7f566f74657220616c7265616479207265676973746572656400000000000000005f82015250565b5f611311601883610a9e565b915061131c826112dd565b602082019050919050565b5f6020820190508181035f83015261133e81611305565b9050919050565b7f566f746572206e6f7420726567697374657265640000000000000000000000005f82015250565b5f611379601483610a9e565b915061138482611345565b602082019050919050565b5f6020820190508181035f8301526113a68161136d565b9050919050565b7f566f74657220616c726561647920766f746564000000000000000000000000005f82015250565b5f6113e1601383610a9e565b91506113ec826113ad565b602082019050919050565b5f6020820190508181035f83015261140e816113d5565b9050919050565b7f496e76616c69642063616e6469646174650000000000000000000000000000005f82015250565b5f611449601183610a9e565b915061145482611415565b602082019050919050565b5f6020820190508181035f8301526114768161143d565b9050919050565b7f4e487b71000000000000000000000000000000000000000000000000000000005f52603260045260245ffd5b5f6114b482610b24565b91506114bf83610b24565b92508282039050818111156114d7576114d6610f14565b5b92915050565b5f6114e782610b24565b91506114f283610b24565b925082820190508082111561150a57611509610f14565b5b9291505056fea26469706673582212200ab10e9cef89ce02e6e134fce5f25a388aabeab634ddd262a609482dd71e2eca64736f6c634300081e0033",
			"opcodes": "PUSH1 0x80 PUSH1 0x40 MSTORE CALLVALUE DUP1 ISZERO PUSH2 0xF JUMPI PUSH0 PUSH0 REVERT JUMPDEST POP PUSH1 0x40 MLOAD PUSH2 0x1A4C CODESIZE SUB DUP1 PUSH2 0x1A4C DUP4 CODECOPY DUP2 DUP2 ADD PUSH1 0x40 MSTORE DUP2 ADD SWAP1 PUSH2 0x31 SWAP2 SWAP1 PUSH2 0x1D3 JUMP JUMPDEST CALLER PUSH0 PUSH0 PUSH2 0x100 EXP DUP2 SLOAD DUP2 PUSH20 0xFFFFFFFFFFFFFFFFFFFFFFFFFFFFFFFFFFFFFFFF MUL NOT AND SWAP1 DUP4 PUSH20 0xFFFFFFFFFFFFFFFFFFFFFFFFFFFFFFFFFFFFFFFF AND MUL OR SWAP1 SSTORE POP DUP1 PUSH1 0x1 SWAP1 DUP2 PUSH2 0x7F SWAP2 SWAP1 PUSH2 0x42A JUMP JUMPDEST POP POP PUSH2 0x4F9 JUMP JUMPDEST PUSH0 PUSH1 0x40 MLOAD SWAP1 POP SWAP1 JUMP JUMPDEST PUSH0 PUSH0 REVERT JUMPDEST PUSH0 PUSH0 REVERT JUMPDEST PUSH0 PUSH0 REVERT JUMPDEST PUSH0 PUSH0 REVERT JUMPDEST PUSH0 PUSH1 0x1F NOT PUSH1 0x1F DUP4 ADD AND SWAP1 POP SWAP2 SWAP1 POP JUMP JUMPDEST PUSH32 0x4E487B7100000000000000000000000000000000000000000000000000000000 PUSH0 MSTORE PUSH1 0x41 PUSH1 0x4 MSTORE PUSH1 0x24 PUSH0 REVERT JUMPDEST PUSH2 0xE5 DUP3 PUSH2 0x9F JUMP JUMPDEST DUP2 ADD DUP2 DUP2 LT PUSH8 0xFFFFFFFFFFFFFFFF DUP3 GT OR ISZERO PUSH2 0x104 JUMPI PUSH2 0x103 PUSH2 0xAF JUMP JUMPDEST JUMPDEST DUP1 PUSH1 0x40 MSTORE POP POP POP JUMP JUMPDEST PUSH0 PUSH2 0x116 PUSH2 0x86 JUMP JUMPDEST SWAP1 POP PUSH2 0x122 DUP3 DUP3 PUSH2 0xDC JUMP JUMPDEST SWAP2 SWAP1 POP JUMP JUMPDEST PUSH0 PUSH8 0xFFFFFFFFFFFFFFFF DUP3 GT ISZERO PUSH2 0x141 JUMPI PUSH2 0x140 PUSH2 0xAF JUMP JUMPDEST JUMPDEST PUSH2 0x14A DUP3 PUSH2 0x9F JUMP JUMPDEST SWAP1 POP PUSH1 0x20 DUP2 ADD SWAP1 POP SWAP2 SWAP1 POP JUMP JUMPDEST DUP3 DUP2 DUP4 MCOPY PUSH0 DUP4 DUP4 ADD MSTORE POP POP POP JUMP JUMPDEST PUSH0 PUSH2 0x177 PUSH2 0x172 DUP5 PUSH2 0x127 JUMP JUMPDEST PUSH2 0x10D JUMP JUMPDEST SWAP1 POP DUP3 DUP2 MSTORE PUSH1 0x20 DUP2 ADD DUP5 DUP5 DUP5 ADD GT ISZERO PUSH2 0x193 JUMPI PUSH2 0x192 PUSH2 0x9B JUMP JUMPDEST JUMPDEST PUSH2 0x19E DUP5 DUP3 DUP6 PUSH2 0x157 JUMP JUMPDEST POP SWAP4 SWAP3 POP POP POP JUMP JUMPDEST PUSH0 DUP3 PUSH1 0x1F DUP4 ADD SLT PUSH2 0x1BA JUMPI PUSH2 0x1B9 PUSH2 0x97 JUMP JUMPDEST JUMPDEST DUP2 MLOAD PUSH2 0x1CA DUP5 DUP3 PUSH1 0x20 DUP7 ADD PUSH2 0x165 JUMP JUMPDEST SWAP2 POP POP SWAP3 SWAP2 POP POP JUMP JUMPDEST PUSH0 PUSH1 0x20 DUP3 DUP5 SUB SLT ISZERO PUSH2 0x1E8 JUMPI PUSH2 0x1E7 PUSH2 0x8F JUMP JUMPDEST JUMPDEST PUSH0 DUP3 ADD MLOAD PUSH8 0xFFFFFFFFFFFFFFFF DUP2 GT ISZERO PUSH2 0x205 JUMPI PUSH2 0x204 PUSH2 0x93 JUMP JUMPDEST JUMPDEST PUSH2 0x211 DUP5 DUP3 DUP6 ADD PUSH2 0x1A6 JUMP JUMPDEST SWAP2 POP POP SWAP3 SWAP2 POP POP JUMP JUMPDEST PUSH0 DUP2 MLOAD SWAP1 POP SWAP2 SWAP1 POP JUMP JUMPDEST PUSH32 0x4E487B7100000000000000000000000000000000000000000000000000000000 PUSH0 MSTORE PUSH1 0x22 PUSH1 0x4 MSTORE PUSH1 0x24 PUSH0 REVERT JUMPDEST PUSH0 PUSH1 0x2 DUP3 DIV SWAP1 POP PUSH1 0x1 DUP3 AND DUP1 PUSH2 0x268 JUMPI PUSH1 0x7F DUP3 AND SWAP2 POP JUMPDEST PUSH1 0x20 DUP3 LT DUP2 SUB PUSH2 0x27B JUMPI PUSH2 0x27A PUSH2 0x224 JUMP JUMPDEST JUMPDEST POP SWAP2 SWAP1 POP JUMP JUMPDEST PUSH0 DUP2 SWAP1 POP DUP2 PUSH0 MSTORE PUSH1 0x20 PUSH0 KECCAK256 SWAP1 POP SWAP2 SWAP1 POP JUMP JUMPDEST PUSH0 PUSH1 0x20 PUSH1 0x1F DUP4 ADD DIV SWAP1 POP SWAP2 SWAP1 POP JUMP JUMPDEST PUSH0 DUP3 DUP3 SHL SWAP1 POP SWAP3 SWAP2 POP POP JUMP JUMPDEST PUSH0 PUSH1 0x8 DUP4 MUL PUSH2 0x2DD PUSH32 0xFFFFFFFFFFFFFFFFFFFFFFFFFFFFFFFFFFFFFFFFFFFFFFFFFFFFFFFFFFFFFFFF DUP3 PUSH2 0x2A2 JUMP JUMPDEST PUSH2 0x2E7 DUP7 DUP4 PUSH2 0x2A2 JUMP JUMPDEST SWAP6 POP DUP1 NOT DUP5 AND SWAP4 POP DUP1 DUP7 AND DUP5 OR SWAP3 POP POP POP SWAP4 SWAP3 POP POP POP JUMP JUMPDEST PUSH0 DUP2 SWAP1 POP SWAP2 SWAP1 POP JUMP JUMPDEST PUSH0 DUP2 SWAP1 POP SWAP2 SWAP1 POP JUMP JUMPDEST PUSH0 PUSH2 0x32B PUSH2 0x326 PUSH2 0x321 DUP5 PUSH2 0x2FF JUMP JUMPDEST PUSH2 0x308 JUMP JUMPDEST PUSH2 0x2FF JUMP JUMPDEST SWAP1 POP SWAP2 SWAP1 POP JUMP JUMPDEST PUSH0 DUP2 SWAP1 POP SWAP2 SWAP1 POP JUMP JUMPDEST PUSH2 0x344 DUP4 PUSH2 0x311 JUMP JUMPDEST PUSH2 0x358 PUSH2 0x350 DUP3 PUSH2 0x332 JUMP JUMPDEST DUP5 DUP5 SLOAD PUSH2 0x2AE JUMP JUMPDEST DUP3 SSTORE POP POP POP POP JUMP JUMPDEST PUSH0 PUSH0 SWAP1 POP SWAP1 JUMP JUMPDEST PUSH2 0x36F PUSH2 0x360 JUMP JUMPDEST PUSH2 0x37A DUP2 DUP5 DUP5 PUSH2 0x33B JUMP JUMPDEST POP POP POP JUMP JUMPDEST JUMPDEST DUP2 DUP2 LT ISZERO PUSH2 0x39D JUMPI PUSH2 0x392 PUSH0 DUP3 PUSH2 0x367 JUMP JUMPDEST PUSH1 0x1 DUP2 ADD SWAP1 POP PUSH2 0x380 JUMP JUMPDEST POP POP JUMP JUMPDEST PUSH1 0x1F DUP3 GT ISZERO PUSH2 0x3E2 JUMPI PUSH2 0x3B3 DUP2 PUSH2 0x281 JUMP JUMPDEST PUSH2 0x3BC DUP5 PUSH2 0x293 JUMP JUMPDEST DUP2 ADD PUSH1 0x20 DUP6 LT ISZERO PUSH2 0x3CB JUMPI DUP2 SWAP1 POP JUMPDEST PUSH2 0x3DF PUSH2 0x3D7 DUP6 PUSH2 0x293 JUMP JUMPDEST DUP4 ADD DUP3 PUSH2 0x37F JUMP JUMPDEST POP POP JUMPDEST POP POP POP JUMP JUMPDEST PUSH0 DUP3 DUP3 SHR SWAP1 POP SWAP3 SWAP2 POP POP JUMP JUMPDEST PUSH0 PUSH2 0x402 PUSH0 NOT DUP5 PUSH1 0x8 MUL PUSH2 0x3E7 JUMP JUMPDEST NOT DUP1 DUP4 AND SWAP2 POP POP SWAP3 SWAP2 POP POP JUMP JUMPDEST PUSH0 PUSH2 0x41A DUP4 DUP4 PUSH2 0x3F3 JUMP JUMPDEST SWAP2 POP DUP3 PUSH1 0x2 MUL DUP3 OR SWAP1 POP SWAP3 SWAP2 POP POP JUMP JUMPDEST PUSH2 0x433 DUP3 PUSH2 0x21A JUMP JUMPDEST PUSH8 0xFFFFFFFFFFFFFFFF DUP2 GT ISZERO PUSH2 0x44C JUMPI PUSH2 0x44B PUSH2 0xAF JUMP JUMPDEST JUMPDEST PUSH2 0x456 DUP3 SLOAD PUSH2 0x251 JUMP JUMPDEST PUSH2 0x461 DUP3 DUP3 DUP6 PUSH2 0x3A1 JUMP JUMPDEST PUSH0 PUSH1 0x20 SWAP1 POP PUSH1 0x1F DUP4 GT PUSH1 0x1 DUP2 EQ PUSH2 0x492 JUMPI PUSH0 DUP5 ISZERO PUSH2 0x480 JUMPI DUP3 DUP8 ADD MLOAD SWAP1 POP JUMPDEST PUSH2 0x48A DUP6 DUP3 PUSH2 0x40F JUMP JUMPDEST DUP7 SSTORE POP PUSH2 0x4F1 JUMP JUMPDEST PUSH1 0x1F NOT DUP5 AND PUSH2 0x4A0 DUP7 PUSH2 0x281 JUMP JUMPDEST PUSH0 JUMPDEST DUP3 DUP2 LT ISZERO PUSH2 0x4C7 JUMPI DUP5 DUP10 ADD MLOAD DUP3 SSTORE PUSH1 0x1 DUP3 ADD SWAP2 POP PUSH1 0x20 DUP6 ADD SWAP5 POP PUSH1 0x20 DUP2 ADD SWAP1 POP PUSH2 0x4A2 JUMP JUMPDEST DUP7 DUP4 LT ISZERO PUSH2 0x4E4 JUMPI DUP5 DUP10 ADD MLOAD PUSH2 0x4E0 PUSH1 0x1F DUP10 AND DUP3 PUSH2 0x3F3 JUMP JUMPDEST DUP4 SSTORE POP JUMPDEST PUSH1 0x1 PUSH1 0x2 DUP9 MUL ADD DUP9 SSTORE POP POP POP JUMPDEST POP POP POP POP POP POP JUMP JUMPDEST PUSH2 0x1546 DUP1 PUSH2 0x506 PUSH0 CODECOPY PUSH0 RETURN INVALID PUSH1 0x80 PUSH1 0x40 MSTORE CALLVALUE DUP1 ISZERO PUSH2 0xF JUMPI PUSH0 PUSH0 REVERT JUMPDEST POP PUSH1 0x4 CALLDATASIZE LT PUSH2 0x91 JUMPI PUSH0 CALLDATALOAD PUSH1 0xE0 SHR DUP1 PUSH4 0x53FA2E64 GT PUSH2 0x64 JUMPI DUP1 PUSH4 0x53FA2E64 EQ PUSH2 0x11E JUMPI DUP1 PUSH4 0x6428A486 EQ PUSH2 0x14F JUMPI DUP1 PUSH4 0xA6385803 EQ PUSH2 0x16B JUMPI DUP1 PUSH4 0xF851A440 EQ PUSH2 0x187 JUMPI DUP1 PUSH4 0xFF981099 EQ PUSH2 0x1A5 JUMPI PUSH2 0x91 JUMP JUMPDEST DUP1 PUSH4 0xE5A7501 EQ PUSH2 0x95 JUMPI DUP1 PUSH4 0x2D35A8A2 EQ PUSH2 0xB3 JUMPI DUP1 PUSH4 0x3477EE2E EQ PUSH2 0xD1 JUMPI DUP1 PUSH4 0x462E91EC EQ PUSH2 0x102 JUMPI JUMPDEST PUSH0 PUSH0 REVERT JUMPDEST PUSH2 0x9D PUSH2 0x1D5 JUMP JUMPDEST PUSH1 0x40 MLOAD PUSH2 0xAA SWAP2 SWAP1 PUSH2 0xB04 JUMP JUMPDEST PUSH1 0x40 MLOAD DUP1 SWAP2 SUB SWAP1 RETURN JUMPDEST PUSH2 0xBB PUSH2 0x261 JUMP JUMPDEST PUSH1 0x40 MLOAD PUSH2 0xC8 SWAP2 SWAP1 PUSH2 0xB3C JUMP JUMPDEST PUSH1 0x40 MLOAD DUP1 SWAP2 SUB SWAP1 RETURN JUMPDEST PUSH2 0xEB PUSH1 0x4 DUP1 CALLDATASIZE SUB DUP2 ADD SWAP1 PUSH2 0xE6 SWAP2 SWAP1 PUSH2 0xB90 JUMP JUMPDEST PUSH2 0x267 JUMP JUMPDEST PUSH1 0x40 MLOAD PUSH2 0xF9 SWAP3 SWAP2 SWAP1 PUSH2 0xBBB JUMP JUMPDEST PUSH1 0x40 MLOAD DUP1 SWAP2 SUB SWAP1 RETURN JUMPDEST PUSH2 0x11C PUSH1 0x4 DUP1 CALLDATASIZE SUB DUP2 ADD SWAP1 PUSH2 0x117 SWAP2 SWAP1 PUSH2 0xD15 JUMP JUMPDEST PUSH2 0x30D JUMP JUMPDEST STOP JUMPDEST PUSH2 0x138 PUSH1 0x4 DUP1 CALLDATASIZE SUB DUP2 ADD SWAP1 PUSH2 0x133 SWAP2 SWAP1 PUSH2 0xD15 JUMP JUMPDEST PUSH2 0x439 JUMP JUMPDEST PUSH1 0x40 MLOAD PUSH2 0x146 SWAP3 SWAP2 SWAP1 PUSH2 0xD76 JUMP JUMPDEST PUSH1 0x40 MLOAD DUP1 SWAP2 SUB SWAP1 RETURN JUMPDEST PUSH2 0x169 PUSH1 0x4 DUP1 CALLDATASIZE SUB DUP2 ADD SWAP1 PUSH2 0x164 SWAP2 SWAP1 PUSH2 0xD15 JUMP JUMPDEST PUSH2 0x489 JUMP JUMPDEST STOP JUMPDEST PUSH2 0x185 PUSH1 0x4 DUP1 CALLDATASIZE SUB DUP2 ADD SWAP1 PUSH2 0x180 SWAP2 SWAP1 PUSH2 0xD9D JUMP JUMPDEST PUSH2 0x67D JUMP JUMPDEST STOP JUMPDEST PUSH2 0x18F PUSH2 0x88E JUMP JUMPDEST PUSH1 0x40 MLOAD PUSH2 0x19C SWAP2 SWAP1 PUSH2 0xE36 JUMP JUMPDEST PUSH1 0x40 MLOAD DUP1 SWAP2 SUB SWAP1 RETURN JUMPDEST PUSH2 0x1BF PUSH1 0x4 DUP1 CALLDATASIZE SUB DUP2 ADD SWAP1 PUSH2 0x1BA SWAP2 SWAP1 PUSH2 0xB90 JUMP JUMPDEST PUSH2 0x8B2 JUMP JUMPDEST PUSH1 0x40 MLOAD PUSH2 0x1CC SWAP2 SWAP1 PUSH2 0xB3C JUMP JUMPDEST PUSH1 0x40 MLOAD DUP1 SWAP2 SUB SWAP1 RETURN JUMPDEST PUSH1 0x1 DUP1 SLOAD PUSH2 0x1E2 SWAP1 PUSH2 0xE7C JUMP JUMPDEST DUP1 PUSH1 0x1F ADD PUSH1 0x20 DUP1 SWAP2 DIV MUL PUSH1 0x20 ADD PUSH1 0x40 MLOAD SWAP1 DUP2 ADD PUSH1 0x40 MSTORE DUP1 SWAP3 SWAP2 SWAP1 DUP2 DUP2 MSTORE PUSH1 0x20 ADD DUP3 DUP1 SLOAD PUSH2 0x20E SWAP1 PUSH2 0xE7C JUMP JUMPDEST DUP1 ISZERO PUSH2 0x259 JUMPI DUP1 PUSH1 0x1F LT PUSH2 0x230 JUMPI PUSH2 0x100 DUP1 DUP4 SLOAD DIV MUL DUP4 MSTORE SWAP2 PUSH1 0x20 ADD SWAP2 PUSH2 0x259 JUMP JUMPDEST DUP3 ADD SWAP2 SWAP1 PUSH0 MSTORE PUSH1 0x20 PUSH0 KECCAK256 SWAP1 JUMPDEST DUP2 SLOAD DUP2 MSTORE SWAP1 PUSH1 0x1 ADD SWAP1 PUSH1 0x20 ADD DUP1 DUP4 GT PUSH2 0x23C JUMPI DUP3 SWAP1 SUB PUSH1 0x1F AND DUP3 ADD SWAP2 JUMPDEST POP POP POP POP POP DUP2 JUMP JUMPDEST PUSH1 0x3 SLOAD DUP2 JUMP JUMPDEST PUSH1 0x2 PUSH1 0x20 MSTORE DUP1 PUSH0 MSTORE PUSH1 0x40 PUSH0 KECCAK256 PUSH0 SWAP2 POP SWAP1 POP DUP1 PUSH0 ADD DUP1 SLOAD PUSH2 0x286 SWAP1 PUSH2 0xE7C JUMP JUMPDEST DUP1 PUSH1 0x1F ADD PUSH1 0x20 DUP1 SWAP2 DIV MUL PUSH1 0x20 ADD PUSH1 0x40 MLOAD SWAP1 DUP2 ADD PUSH1 0x40 MSTORE DUP1 SWAP3 SWAP2 SWAP1 DUP2 DUP2 MSTORE PUSH1 0x20 ADD DUP3 DUP1 SLOAD PUSH2 0x2B2 SWAP1 PUSH2 0xE7C JUMP JUMPDEST DUP1 ISZERO PUSH2 0x2FD JUMPI DUP1 PUSH1 0x1F LT PUSH2 0x2D4 JUMPI PUSH2 0x100 DUP1 DUP4 SLOAD DIV MUL DUP4 MSTORE SWAP2 PUSH1 0x20 ADD SWAP2 PUSH2 0x2FD JUMP JUMPDEST DUP3 ADD SWAP2 SWAP1 PUSH0 MSTORE PUSH1 0x20 PUSH0 KECCAK256 SWAP1 JUMPDEST DUP2 SLOAD DUP2 MSTORE SWAP1 PUSH1 0x1 ADD SWAP1 PUSH1 0x20 ADD DUP1 DUP4 GT PUSH2 0x2E0 JUMPI DUP3 SWAP1 SUB PUSH1 0x1F AND DUP3 ADD SWAP2 JUMPDEST POP POP POP POP POP SWAP1 DUP1 PUSH1 0x1 ADD SLOAD SWAP1 POP DUP3 JUMP JUMPDEST PUSH0 PUSH0 SWAP1 SLOAD SWAP1 PUSH2 0x100 EXP SWAP1 DIV PUSH20 0xFFFFFFFFFFFFFFFFFFFFFFFFFFFFFFFFFFFFFFFF AND PUSH20 0xFFFFFFFFFFFFFFFFFFFFFFFFFFFFFFFFFFFFFFFF AND CALLER PUSH20 0xFFFFFFFFFFFFFFFFFFFFFFFFFFFFFFFFFFFFFFFF AND EQ PUSH2 0x39B JUMPI PUSH1 0x40 MLOAD PUSH32 0x8C379A000000000000000000000000000000000000000000000000000000000 DUP2 MSTORE PUSH1 0x4 ADD PUSH2 0x392 SWAP1 PUSH2 0xEF6 JUMP JUMPDEST PUSH1 0x40 MLOAD DUP1 SWAP2 SUB SWAP1 REVERT JUMPDEST PUSH1 0x3 PUSH0 DUP2 SLOAD DUP1 SWAP3 SWAP2 SWAP1 PUSH2 0x3AD SWAP1 PUSH2 0xF41 JUMP JUMPDEST SWAP2 SWAP1 POP SSTORE POP PUSH1 0x40 MLOAD DUP1 PUSH1 0x40 ADD PUSH1 0x40 MSTORE DUP1 DUP3 DUP2 MSTORE PUSH1 0x20 ADD PUSH0 DUP2 MSTORE POP PUSH1 0x2 PUSH0 PUSH1 0x3 SLOAD DUP2 MSTORE PUSH1 0x20 ADD SWAP1 DUP2 MSTORE PUSH1 0x20 ADD PUSH0 KECCAK256 PUSH0 DUP3 ADD MLOAD DUP2 PUSH0 ADD SWAP1 DUP2 PUSH2 0x3ED SWAP2 SWAP1 PUSH2 0x1128 JUMP JUMPDEST POP PUSH1 0x20 DUP3 ADD MLOAD DUP2 PUSH1 0x1 ADD SSTORE SWAP1 POP POP PUSH32 0xE83B2A43E7E82D975C8A0A6D2F045153C869E111136A34D1889AB7B598E396A3 PUSH1 0x3 SLOAD DUP3 PUSH1 0x40 MLOAD PUSH2 0x42E SWAP3 SWAP2 SWAP1 PUSH2 0x11F7 JUMP JUMPDEST PUSH1 0x40 MLOAD DUP1 SWAP2 SUB SWAP1 LOG1 POP JUMP JUMPDEST PUSH1 0x4 DUP2 DUP1 MLOAD PUSH1 0x20 DUP2 ADD DUP3 ADD DUP1 MLOAD DUP5 DUP3 MSTORE PUSH1 0x20 DUP4 ADD PUSH1 0x20 DUP6 ADD KECCAK256 DUP2 DUP4 MSTORE DUP1 SWAP6 POP POP POP POP POP POP PUSH0 SWAP2 POP SWAP1 POP DUP1 PUSH0 ADD PUSH0 SWAP1 SLOAD SWAP1 PUSH2 0x100 EXP SWAP1 DIV PUSH1 0xFF AND SWAP1 DUP1 PUSH0 ADD PUSH1 0x1 SWAP1 SLOAD SWAP1 PUSH2 0x100 EXP SWAP1 DIV PUSH1 0xFF AND SWAP1 POP DUP3 JUMP JUMPDEST PUSH0 PUSH0 SWAP1 SLOAD SWAP1 PUSH2 0x100 EXP SWAP1 DIV PUSH20 0xFFFFFFFFFFFFFFFFFFFFFFFFFFFFFFFFFFFFFFFF AND PUSH20 0xFFFFFFFFFFFFFFFFFFFFFFFFFFFFFFFFFFFFFFFF AND CALLER PUSH20 0xFFFFFFFFFFFFFFFFFFFFFFFFFFFFFFFFFFFFFFFF AND EQ PUSH2 0x517 JUMPI PUSH1 0x40 MLOAD PUSH32 0x8C379A000000000000000000000000000000000000000000000000000000000 DUP2 MSTORE PUSH1 0x4 ADD PUSH2 0x50E SWAP1 PUSH2 0xEF6 JUMP JUMPDEST PUSH1 0x40 MLOAD DUP1 SWAP2 SUB SWAP1 REVERT JUMPDEST PUSH2 0x520 DUP2 PUSH2 0x91F JUMP JUMPDEST PUSH2 0x55F JUMPI PUSH1 0x40 MLOAD PUSH32 0x8C379A000000000000000000000000000000000000000000000000000000000 DUP2 MSTORE PUSH1 0x4 ADD PUSH2 0x556 SWAP1 PUSH2 0x126F JUMP JUMPDEST PUSH1 0x40 MLOAD DUP1 SWAP2 SUB SWAP1 REVERT JUMPDEST PUSH1 0x4 DUP2 PUSH1 0x40 MLOAD PUSH2 0x56F SWAP2 SWAP1 PUSH2 0x12C7 JUMP JUMPDEST SWAP1 DUP2 MSTORE PUSH1 0x20 ADD PUSH1 0x40 MLOAD DUP1 SWAP2 SUB SWAP1 KECCAK256 PUSH0 ADD PUSH0 SWAP1 SLOAD SWAP1 PUSH2 0x100 EXP SWAP1 DIV PUSH1 0xFF AND ISZERO PUSH2 0x5CC JUMPI PUSH1 0x40 MLOAD PUSH32 0x8C379A000000000000000000000000000000000000000000000000000000000 DUP2 MSTORE PUSH1 0x4 ADD PUSH2 0x5C3 SWAP1 PUSH2 0x1327 JUMP JUMPDEST PUSH1 0x40 MLOAD DUP1 SWAP2 SUB SWAP1 REVERT JUMPDEST PUSH1 0x40 MLOAD DUP1 PUSH1 0x40 ADD PUSH1 0x40 MSTORE DUP1 PUSH1 0x1 ISZERO ISZERO DUP2 MSTORE PUSH1 0x20 ADD PUSH0 ISZERO ISZERO DUP2 MSTORE POP PUSH1 0x4 DUP3 PUSH1 0x40 MLOAD PUSH2 0x5F6 SWAP2 SWAP1 PUSH2 0x12C7 JUMP JUMPDEST SWAP1 DUP2 MSTORE PUSH1 0x20 ADD PUSH1 0x40 MLOAD DUP1 SWAP2 SUB SWAP1 KECCAK256 PUSH0 DUP3 ADD MLOAD DUP2 PUSH0 ADD PUSH0 PUSH2 0x100 EXP DUP2 SLOAD DUP2 PUSH1 0xFF MUL NOT AND SWAP1 DUP4 ISZERO ISZERO MUL OR SWAP1 SSTORE POP PUSH1 0x20 DUP3 ADD MLOAD DUP2 PUSH0 ADD PUSH1 0x1 PUSH2 0x100 EXP DUP2 SLOAD DUP2 PUSH1 0xFF MUL NOT AND SWAP1 DUP4 ISZERO ISZERO MUL OR SWAP1 SSTORE POP SWAP1 POP POP PUSH32 0xA10C6BA5C7CE6DA8BA832ADD5620AA12208520DACB5C93E479F9C1B56BB915B4 DUP2 PUSH1 0x40 MLOAD PUSH2 0x672 SWAP2 SWAP1 PUSH2 0xB04 JUMP JUMPDEST PUSH1 0x40 MLOAD DUP1 SWAP2 SUB SWAP1 LOG1 POP JUMP JUMPDEST PUSH2 0x686 DUP3 PUSH2 0x91F JUMP JUMPDEST PUSH2 0x6C5 JUMPI PUSH1 0x40 MLOAD PUSH32 0x8C379A000000000000000000000000000000000000000000000000000000000 DUP2 MSTORE PUSH1 0x4 ADD PUSH2 0x6BC SWAP1 PUSH2 0x126F JUMP JUMPDEST PUSH1 0x40 MLOAD DUP1 SWAP2 SUB SWAP1 REVERT JUMPDEST PUSH1 0x4 DUP3 PUSH1 0x40 MLOAD PUSH2 0x6D5 SWAP2 SWAP1 PUSH2 0x12C7 JUMP JUMPDEST SWAP1 DUP2 MSTORE PUSH1 0x20 ADD PUSH1 0x40 MLOAD DUP1 SWAP2 SUB SWAP1 KECCAK256 PUSH0 ADD PUSH0 SWAP1 SLOAD SWAP1 PUSH2 0x100 EXP SWAP1 DIV PUSH1 0xFF AND PUSH2 0x731 JUMPI PUSH1 0x40 MLOAD PUSH32 0x8C379A000000000000000000000000000000000000000000000000000000000 DUP2 MSTORE PUSH1 0x4 ADD PUSH2 0x728 SWAP1 PUSH2 0x138F JUMP JUMPDEST PUSH1 0x40 MLOAD DUP1 SWAP2 SUB SWAP1 REVERT JUMPDEST PUSH1 0x4 DUP3 PUSH1 0x40 MLOAD PUSH2 0x741 SWAP2 SWAP1 PUSH2 0x12C7 JUMP JUMPDEST SWAP1 DUP2 MSTORE PUSH1 0x20 ADD PUSH1 0x40 MLOAD DUP1 SWAP2 SUB SWAP1 KECCAK256 PUSH0 ADD PUSH1 0x1 SWAP1 SLOAD SWAP1 PUSH2 0x100 EXP SWAP1 DIV PUSH1 0xFF AND ISZERO PUSH2 0x79F JUMPI PUSH1 0x40 MLOAD PUSH32 0x8C379A000000000000000000000000000000000000000000000000000000000 DUP2 MSTORE PUSH1 0x4 ADD PUSH2 0x796 SWAP1 PUSH2 0x13F7 JUMP JUMPDEST PUSH1 0x40 MLOAD DUP1 SWAP2 SUB SWAP1 REVERT JUMPDEST PUSH0 DUP2 GT DUP1 ISZERO PUSH2 0x7B0 JUMPI POP PUSH1 0x3 SLOAD DUP2 GT ISZERO JUMPDEST PUSH2 0x7EF JUMPI PUSH1 0x40 MLOAD PUSH32 0x8C379A000000000000000000000000000000000000000000000000000000000 DUP2 MSTORE PUSH1 0x4 ADD PUSH2 0x7E6 SWAP1 PUSH2 0x145F JUMP JUMPDEST PUSH1 0x40 MLOAD DUP1 SWAP2 SUB SWAP1 REVERT JUMPDEST PUSH1 0x1 PUSH1 0x4 DUP4 PUSH1 0x40 MLOAD PUSH2 0x801 SWAP2 SWAP1 PUSH2 0x12C7 JUMP JUMPDEST SWAP1 DUP2 MSTORE PUSH1 0x20 ADD PUSH1 0x40 MLOAD DUP1 SWAP2 SUB SWAP1 KECCAK256 PUSH0 ADD PUSH1 0x1 PUSH2 0x100 EXP DUP2 SLOAD DUP2 PUSH1 0xFF MUL NOT AND SWAP1 DUP4 ISZERO ISZERO MUL OR SWAP1 SSTORE POP PUSH1 0x2 PUSH0 DUP3 DUP2 MSTORE PUSH1 0x20 ADD SWAP1 DUP2 MSTORE PUSH1 0x20 ADD PUSH0 KECCAK256 PUSH1 0x1 ADD PUSH0 DUP2 SLOAD DUP1 SWAP3 SWAP2 SWAP1 PUSH2 0x84C SWAP1 PUSH2 0xF41 JUMP JUMPDEST SWAP2 SWAP1 POP SSTORE POP PUSH32 0x777E12406713E556F995AE7467576EA751D01F243FF84668EF43B36634F3FA88 DUP3 DUP3 PUSH1 0x40 MLOAD PUSH2 0x882 SWAP3 SWAP2 SWAP1 PUSH2 0xBBB JUMP JUMPDEST PUSH1 0x40 MLOAD DUP1 SWAP2 SUB SWAP1 LOG1 POP POP JUMP JUMPDEST PUSH0 PUSH0 SWAP1 SLOAD SWAP1 PUSH2 0x100 EXP SWAP1 DIV PUSH20 0xFFFFFFFFFFFFFFFFFFFFFFFFFFFFFFFFFFFFFFFF AND DUP2 JUMP JUMPDEST PUSH0 PUSH0 DUP3 GT DUP1 ISZERO PUSH2 0x8C4 JUMPI POP PUSH1 0x3 SLOAD DUP3 GT ISZERO JUMPDEST PUSH2 0x903 JUMPI PUSH1 0x40 MLOAD PUSH32 0x8C379A000000000000000000000000000000000000000000000000000000000 DUP2 MSTORE PUSH1 0x4 ADD PUSH2 0x8FA SWAP1 PUSH2 0x145F JUMP JUMPDEST PUSH1 0x40 MLOAD DUP1 SWAP2 SUB SWAP1 REVERT JUMPDEST PUSH1 0x2 PUSH0 DUP4 DUP2 MSTORE PUSH1 0x20 ADD SWAP1 DUP2 MSTORE PUSH1 0x20 ADD PUSH0 KECCAK256 PUSH1 0x1 ADD SLOAD SWAP1 POP SWAP2 SWAP1 POP JUMP JUMPDEST PUSH0 PUSH0 DUP3 SWAP1 POP PUSH0 PUSH1 0x1 DUP1 SLOAD PUSH2 0x932 SWAP1 PUSH2 0xE7C JUMP JUMPDEST DUP1 PUSH1 0x1F ADD PUSH1 0x20 DUP1 SWAP2 DIV MUL PUSH1 0x20 ADD PUSH1 0x40 MLOAD SWAP1 DUP2 ADD PUSH1 0x40 MSTORE DUP1 SWAP3 SWAP2 SWAP1 DUP2 DUP2 MSTORE PUSH1 0x20 ADD DUP3 DUP1 SLOAD PUSH2 0x95E SWAP1 PUSH2 0xE7C JUMP JUMPDEST DUP1 ISZERO PUSH2 0x9A9 JUMPI DUP1 PUSH1 0x1F LT PUSH2 0x980 JUMPI PUSH2 0x100 DUP1 DUP4 SLOAD DIV MUL DUP4 MSTORE SWAP2 PUSH1 0x20 ADD SWAP2 PUSH2 0x9A9 JUMP JUMPDEST DUP3 ADD SWAP2 SWAP1 PUSH0 MSTORE PUSH1 0x20 PUSH0 KECCAK256 SWAP1 JUMPDEST DUP2 SLOAD DUP2 MSTORE SWAP1 PUSH1 0x1 ADD SWAP1 PUSH1 0x20 ADD DUP1 DUP4 GT PUSH2 0x98C JUMPI DUP3 SWAP1 SUB PUSH1 0x1F AND DUP3 ADD SWAP2 JUMPDEST POP POP POP POP POP SWAP1 POP DUP1 MLOAD DUP3 MLOAD LT ISZERO PUSH2 0x9C4 JUMPI PUSH0 SWAP3 POP POP POP PUSH2 0xA8F JUMP JUMPDEST PUSH0 PUSH0 SWAP1 POP JUMPDEST DUP2 MLOAD DUP2 LT ISZERO PUSH2 0xA87 JUMPI DUP2 DUP2 DUP2 MLOAD DUP2 LT PUSH2 0x9E5 JUMPI PUSH2 0x9E4 PUSH2 0x147D JUMP JUMPDEST JUMPDEST PUSH1 0x20 ADD ADD MLOAD PUSH1 0xF8 SHR PUSH1 0xF8 SHL PUSH31 0xFFFFFFFFFFFFFFFFFFFFFFFFFFFFFFFFFFFFFFFFFFFFFFFFFFFFFFFFFFFFFF NOT AND DUP4 DUP3 DUP5 MLOAD DUP7 MLOAD PUSH2 0xA22 SWAP2 SWAP1 PUSH2 0x14AA JUMP JUMPDEST PUSH2 0xA2C SWAP2 SWAP1 PUSH2 0x14DD JUMP JUMPDEST DUP2 MLOAD DUP2 LT PUSH2 0xA3D JUMPI PUSH2 0xA3C PUSH2 0x147D JUMP JUMPDEST JUMPDEST PUSH1 0x20 ADD ADD MLOAD PUSH1 0xF8 SHR PUSH1 0xF8 SHL PUSH31 0xFFFFFFFFFFFFFFFFFFFFFFFFFFFFFFFFFFFFFFFFFFFFFFFFFFFFFFFFFFFFFF NOT AND EQ PUSH2 0xA7A JUMPI PUSH0 SWAP4 POP POP POP POP PUSH2 0xA8F JUMP JUMPDEST DUP1 DUP1 PUSH1 0x1 ADD SWAP2 POP POP PUSH2 0x9C9 JUMP JUMPDEST POP PUSH1 0x1 SWAP3 POP POP POP JUMPDEST SWAP2 SWAP1 POP JUMP JUMPDEST PUSH0 DUP2 MLOAD SWAP1 POP SWAP2 SWAP1 POP JUMP JUMPDEST PUSH0 DUP3 DUP3 MSTORE PUSH1 0x20 DUP3 ADD SWAP1 POP SWAP3 SWAP2 POP POP JUMP JUMPDEST DUP3 DUP2 DUP4 MCOPY PUSH0 DUP4 DUP4 ADD MSTORE POP POP POP JUMP JUMPDEST PUSH0 PUSH1 0x1F NOT PUSH1 0x1F DUP4 ADD AND SWAP1 POP SWAP2 SWAP1 POP JUMP JUMPDEST PUSH0 PUSH2 0xAD6 DUP3 PUSH2 0xA94 JUMP JUMPDEST PUSH2 0xAE0 DUP2 DUP6 PUSH2 0xA9E JUMP JUMPDEST SWAP4 POP PUSH2 0xAF0 DUP2 DUP6 PUSH1 0x20 DUP7 ADD PUSH2 0xAAE JUMP JUMPDEST PUSH2 0xAF9 DUP2 PUSH2 0xABC JUMP JUMPDEST DUP5 ADD SWAP2 POP POP SWAP3 SWAP2 POP POP JUMP JUMPDEST PUSH0 PUSH1 0x20 DUP3 ADD SWAP1 POP DUP2 DUP2 SUB PUSH0 DUP4 ADD MSTORE PUSH2 0xB1C DUP2 DUP5 PUSH2 0xACC JUMP JUMPDEST SWAP1 POP SWAP3 SWAP2 POP POP JUMP JUMPDEST PUSH0 DUP2 SWAP1 POP SWAP2 SWAP1 POP JUMP JUMPDEST PUSH2 0xB36 DUP2 PUSH2 0xB24 JUMP JUMPDEST DUP3 MSTORE POP POP JUMP JUMPDEST PUSH0 PUSH1 0x20 DUP3 ADD SWAP1 POP PUSH2 0xB4F PUSH0 DUP4 ADD DUP5 PUSH2 0xB2D JUMP JUMPDEST SWAP3 SWAP2 POP POP JUMP JUMPDEST PUSH0 PUSH1 0x40 MLOAD SWAP1 POP SWAP1 JUMP JUMPDEST PUSH0 PUSH0 REVERT JUMPDEST PUSH0 PUSH0 REVERT JUMPDEST PUSH2 0xB6F DUP2 PUSH2 0xB24 JUMP JUMPDEST DUP2 EQ PUSH2 0xB79 JUMPI PUSH0 PUSH0 REVERT JUMPDEST POP JUMP JUMPDEST PUSH0 DUP2 CALLDATALOAD SWAP1 POP PUSH2 0xB8A DUP2 PUSH2 0xB66 JUMP JUMPDEST SWAP3 SWAP2 POP POP JUMP JUMPDEST PUSH0 PUSH1 0x20 DUP3 DUP5 SUB SLT ISZERO PUSH2 0xBA5 JUMPI PUSH2 0xBA4 PUSH2 0xB5E JUMP JUMPDEST JUMPDEST PUSH0 PUSH2 0xBB2 DUP5 DUP3 DUP6 ADD PUSH2 0xB7C JUMP JUMPDEST SWAP2 POP POP SWAP3 SWAP2 POP POP JUMP JUMPDEST PUSH0 PUSH1 0x40 DUP3 ADD SWAP1 POP DUP2 DUP2 SUB PUSH0 DUP4 ADD MSTORE PUSH2 0xBD3 DUP2 DUP6 PUSH2 0xACC JUMP JUMPDEST SWAP1 POP PUSH2 0xBE2 PUSH1 0x20 DUP4 ADD DUP5 PUSH2 0xB2D JUMP JUMPDEST SWAP4 SWAP3 POP POP POP JUMP JUMPDEST PUSH0 PUSH0 REVERT JUMPDEST PUSH0 PUSH0 REVERT JUMPDEST PUSH32 0x4E487B7100000000000000000000000000000000000000000000000000000000 PUSH0 MSTORE PUSH1 0x41 PUSH1 0x4 MSTORE PUSH1 0x24 PUSH0 REVERT JUMPDEST PUSH2 0xC27 DUP3 PUSH2 0xABC JUMP JUMPDEST DUP2 ADD DUP2 DUP2 LT PUSH8 0xFFFFFFFFFFFFFFFF DUP3 GT OR ISZERO PUSH2 0xC46 JUMPI PUSH2 0xC45 PUSH2 0xBF1 JUMP JUMPDEST JUMPDEST DUP1 PUSH1 0x40 MSTORE POP POP POP JUMP JUMPDEST PUSH0 PUSH2 0xC58 PUSH2 0xB55 JUMP JUMPDEST SWAP1 POP PUSH2 0xC64 DUP3 DUP3 PUSH2 0xC1E JUMP JUMPDEST SWAP2 SWAP1 POP JUMP JUMPDEST PUSH0 PUSH8 0xFFFFFFFFFFFFFFFF DUP3 GT ISZERO PUSH2 0xC83 JUMPI PUSH2 0xC82 PUSH2 0xBF1 JUMP JUMPDEST JUMPDEST PUSH2 0xC8C DUP3 PUSH2 0xABC JUMP JUMPDEST SWAP1 POP PUSH1 0x20 DUP2 ADD SWAP1 POP SWAP2 SWAP1 POP JUMP JUMPDEST DUP3 DUP2 DUP4 CALLDATACOPY PUSH0 DUP4 DUP4 ADD MSTORE POP POP POP JUMP JUMPDEST PUSH0 PUSH2 0xCB9 PUSH2 0xCB4 DUP5 PUSH2 0xC69 JUMP JUMPDEST PUSH2 0xC4F JUMP JUMPDEST SWAP1 POP DUP3 DUP2 MSTORE PUSH1 0x20 DUP2 ADD DUP5 DUP5 DUP5 ADD GT ISZERO PUSH2 0xCD5 JUMPI PUSH2 0xCD4 PUSH2 0xBED JUMP JUMPDEST JUMPDEST PUSH2 0xCE0 DUP5 DUP3 DUP6 PUSH2 0xC99 JUMP JUMPDEST POP SWAP4 SWAP3 POP POP POP JUMP JUMPDEST PUSH0 DUP3 PUSH1 0x1F DUP4 ADD SLT PUSH2 0xCFC JUMPI PUSH2 0xCFB PUSH2 0xBE9 JUMP JUMPDEST JUMPDEST DUP2 CALLDATALOAD PUSH2 0xD0C DUP5 DUP3 PUSH1 0x20 DUP7 ADD PUSH2 0xCA7 JUMP JUMPDEST SWAP2 POP POP SWAP3 SWAP2 POP POP JUMP JUMPDEST PUSH0 PUSH1 0x20 DUP3 DUP5 SUB SLT ISZERO PUSH2 0xD2A JUMPI PUSH2 0xD29 PUSH2 0xB5E JUMP JUMPDEST JUMPDEST PUSH0 DUP3 ADD CALLDATALOAD PUSH8 0xFFFFFFFFFFFFFFFF DUP2 GT ISZERO PUSH2 0xD47 JUMPI PUSH2 0xD46 PUSH2 0xB62 JUMP JUMPDEST JUMPDEST PUSH2 0xD53 DUP5 DUP3 DUP6 ADD PUSH2 0xCE8 JUMP JUMPDEST SWAP2 POP POP SWAP3 SWAP2 POP POP JUMP JUMPDEST PUSH0 DUP2 ISZERO ISZERO SWAP1 POP SWAP2 SWAP1 POP JUMP JUMPDEST PUSH2 0xD70 DUP2 PUSH2 0xD5C JUMP JUMPDEST DUP3 MSTORE POP POP JUMP JUMPDEST PUSH0 PUSH1 0x40 DUP3 ADD SWAP1 POP PUSH2 0xD89 PUSH0 DUP4 ADD DUP6 PUSH2 0xD67 JUMP JUMPDEST PUSH2 0xD96 PUSH1 0x20 DUP4 ADD DUP5 PUSH2 0xD67 JUMP JUMPDEST SWAP4 SWAP3 POP POP POP JUMP JUMPDEST PUSH0 PUSH0 PUSH1 0x40 DUP4 DUP6 SUB SLT ISZERO PUSH2 0xDB3 JUMPI PUSH2 0xDB2 PUSH2 0xB5E JUMP JUMPDEST JUMPDEST PUSH0 DUP4 ADD CALLDATALOAD PUSH8 0xFFFFFFFFFFFFFFFF DUP2 GT ISZERO PUSH2 0xDD0 JUMPI PUSH2 0xDCF PUSH2 0xB62 JUMP JUMPDEST JUMPDEST PUSH2 0xDDC DUP6 DUP3 DUP7 ADD PUSH2 0xCE8 JUMP JUMPDEST SWAP3 POP POP PUSH1 0x20 PUSH2 0xDED DUP6 DUP3 DUP7 ADD PUSH2 0xB7C JUMP JUMPDEST SWAP2 POP POP SWAP3 POP SWAP3 SWAP1 POP JUMP JUMPDEST PUSH0 PUSH20 0xFFFFFFFFFFFFFFFFFFFFFFFFFFFFFFFFFFFFFFFF DUP3 AND SWAP1 POP SWAP2 SWAP1 POP JUMP JUMPDEST PUSH0 PUSH2 0xE20 DUP3 PUSH2 0xDF7 JUMP JUMPDEST SWAP1 POP SWAP2 SWAP1 POP JUMP JUMPDEST PUSH2 0xE30 DUP2 PUSH2 0xE16 JUMP JUMPDEST DUP3 MSTORE POP POP JUMP JUMPDEST PUSH0 PUSH1 0x20 DUP3 ADD SWAP1 POP PUSH2 0xE49 PUSH0 DUP4 ADD DUP5 PUSH2 0xE27 JUMP JUMPDEST SWAP3 SWAP2 POP POP JUMP JUMPDEST PUSH32 0x4E487B7100000000000000000000000000000000000000000000000000000000 PUSH0 MSTORE PUSH1 0x22 PUSH1 0x4 MSTORE PUSH1 0x24 PUSH0 REVERT JUMPDEST PUSH0 PUSH1 0x2 DUP3 DIV SWAP1 POP PUSH1 0x1 DUP3 AND DUP1 PUSH2 0xE93 JUMPI PUSH1 0x7F DUP3 AND SWAP2 POP JUMPDEST PUSH1 0x20 DUP3 LT DUP2 SUB PUSH2 0xEA6 JUMPI PUSH2 0xEA5 PUSH2 0xE4F JUMP JUMPDEST JUMPDEST POP SWAP2 SWAP1 POP JUMP JUMPDEST PUSH32 0x4F6E6C792061646D696E2063616E2063616C6C20746869730000000000000000 PUSH0 DUP3 ADD MSTORE POP JUMP JUMPDEST PUSH0 PUSH2 0xEE0 PUSH1 0x18 DUP4 PUSH2 0xA9E JUMP JUMPDEST SWAP2 POP PUSH2 0xEEB DUP3 PUSH2 0xEAC JUMP JUMPDEST PUSH1 0x20 DUP3 ADD SWAP1 POP SWAP2 SWAP1 POP JUMP JUMPDEST PUSH0 PUSH1 0x20 DUP3 ADD SWAP1 POP DUP2 DUP2 SUB PUSH0 DUP4 ADD MSTORE PUSH2 0xF0D DUP2 PUSH2 0xED4 JUMP JUMPDEST SWAP1 POP SWAP2 SWAP1 POP JUMP JUMPDEST PUSH32 0x4E487B7100000000000000000000000000000000000000000000000000000000 PUSH0 MSTORE PUSH1 0x11 PUSH1 0x4 MSTORE PUSH1 0x24 PUSH0 REVERT JUMPDEST PUSH0 PUSH2 0xF4B DUP3 PUSH2 0xB24 JUMP JUMPDEST SWAP2 POP PUSH32 0xFFFFFFFFFFFFFFFFFFFFFFFFFFFFFFFFFFFFFFFFFFFFFFFFFFFFFFFFFFFFFFFF DUP3 SUB PUSH2 0xF7D JUMPI PUSH2 0xF7C PUSH2 0xF14 JUMP JUMPDEST JUMPDEST PUSH1 0x1 DUP3 ADD SWAP1 POP SWAP2 SWAP1 POP JUMP JUMPDEST PUSH0 DUP2 SWAP1 POP DUP2 PUSH0 MSTORE PUSH1 0x20 PUSH0 KECCAK256 SWAP1 POP SWAP2 SWAP1 POP JUMP JUMPDEST PUSH0 PUSH1 0x20 PUSH1 0x1F DUP4 ADD DIV SWAP1 POP SWAP2 SWAP1 POP JUMP JUMPDEST PUSH0 DUP3 DUP3 SHL SWAP1 POP SWAP3 SWAP2 POP POP JUMP JUMPDEST PUSH0 PUSH1 0x8 DUP4 MUL PUSH2 0xFE4 PUSH32 0xFFFFFFFFFFFFFFFFFFFFFFFFFFFFFFFFFFFFFFFFFFFFFFFFFFFFFFFFFFFFFFFF DUP3 PUSH2 0xFA9 JUMP JUMPDEST PUSH2 0xFEE DUP7 DUP4 PUSH2 0xFA9 JUMP JUMPDEST SWAP6 POP DUP1 NOT DUP5 AND SWAP4 POP DUP1 DUP7 AND DUP5 OR SWAP3 POP POP POP SWAP4 SWAP3 POP POP POP JUMP JUMPDEST PUSH0 DUP2 SWAP1 POP SWAP2 SWAP1 POP JUMP JUMPDEST PUSH0 PUSH2 0x1029 PUSH2 0x1024 PUSH2 0x101F DUP5 PUSH2 0xB24 JUMP JUMPDEST PUSH2 0x1006 JUMP JUMPDEST PUSH2 0xB24 JUMP JUMPDEST SWAP1 POP SWAP2 SWAP1 POP JUMP JUMPDEST PUSH0 DUP2 SWAP1 POP SWAP2 SWAP1 POP JUMP JUMPDEST PUSH2 0x1042 DUP4 PUSH2 0x100F JUMP JUMPDEST PUSH2 0x1056 PUSH2 0x104E DUP3 PUSH2 0x1030 JUMP JUMPDEST DUP5 DUP5 SLOAD PUSH2 0xFB5 JUMP JUMPDEST DUP3 SSTORE POP POP POP POP JUMP JUMPDEST PUSH0 PUSH0 SWAP1 POP SWAP1 JUMP JUMPDEST PUSH2 0x106D PUSH2 0x105E JUMP JUMPDEST PUSH2 0x1078 DUP2 DUP5 DUP5 PUSH2 0x1039 JUMP JUMPDEST POP POP POP JUMP JUMPDEST JUMPDEST DUP2 DUP2 LT ISZERO PUSH2 0x109B JUMPI PUSH2 0x1090 PUSH0 DUP3 PUSH2 0x1065 JUMP JUMPDEST PUSH1 0x1 DUP2 ADD SWAP1 POP PUSH2 0x107E JUMP JUMPDEST POP POP JUMP JUMPDEST PUSH1 0x1F DUP3 GT ISZERO PUSH2 0x10E0 JUMPI PUSH2 0x10B1 DUP2 PUSH2 0xF88 JUMP JUMPDEST PUSH2 0x10BA DUP5 PUSH2 0xF9A JUMP JUMPDEST DUP2 ADD PUSH1 0x20 DUP6 LT ISZERO PUSH2 0x10C9 JUMPI DUP2 SWAP1 POP JUMPDEST PUSH2 0x10DD PUSH2 0x10D5 DUP6 PUSH2 0xF9A JUMP JUMPDEST DUP4 ADD DUP3 PUSH2 0x107D JUMP JUMPDEST POP POP JUMPDEST POP POP POP JUMP JUMPDEST PUSH0 DUP3 DUP3 SHR SWAP1 POP SWAP3 SWAP2 POP POP JUMP JUMPDEST PUSH0 PUSH2 0x1100 PUSH0 NOT DUP5 PUSH1 0x8 MUL PUSH2 0x10E5 JUMP JUMPDEST NOT DUP1 DUP4 AND SWAP2 POP POP SWAP3 SWAP2 POP POP JUMP JUMPDEST PUSH0 PUSH2 0x1118 DUP4 DUP4 PUSH2 0x10F1 JUMP JUMPDEST SWAP2 POP DUP3 PUSH1 0x2 MUL DUP3 OR SWAP1 POP SWAP3 SWAP2 POP POP JUMP JUMPDEST PUSH2 0x1131 DUP3 PUSH2 0xA94 JUMP JUMPDEST PUSH8 0xFFFFFFFFFFFFFFFF DUP2 GT ISZERO PUSH2 0x114A JUMPI PUSH2 0x1149 PUSH2 0xBF1 JUMP JUMPDEST JUMPDEST PUSH2 0x1154 DUP3 SLOAD PUSH2 0xE7C JUMP JUMPDEST PUSH2 0x115F DUP3 DUP3 DUP6 PUSH2 0x109F JUMP JUMPDEST PUSH0 PUSH1 0x20 SWAP1 POP PUSH1 0x1F DUP4 GT PUSH1 0x1 DUP2 EQ PUSH2 0x1190 JUMPI PUSH0 DUP5 ISZERO PUSH2 0x117E JUMPI DUP3 DUP8 ADD MLOAD SWAP1 POP JUMPDEST PUSH2 0x1188 DUP6 DUP3 PUSH2 0x110D JUMP JUMPDEST DUP7 SSTORE POP PUSH2 0x11EF JUMP JUMPDEST PUSH1 0x1F NOT DUP5 AND PUSH2 0x119E DUP7 PUSH2 0xF88 JUMP JUMPDEST PUSH0 JUMPDEST DUP3 DUP2 LT ISZERO PUSH2 0x11C5 JUMPI DUP5 DUP10 ADD MLOAD DUP3 SSTORE PUSH1 0x1 DUP3 ADD SWAP2 POP PUSH1 0x20 DUP6 ADD SWAP5 POP PUSH1 0x20 DUP2 ADD SWAP1 POP PUSH2 0x11A0 JUMP JUMPDEST DUP7 DUP4 LT ISZERO PUSH2 0x11E2 JUMPI DUP5 DUP10 ADD MLOAD PUSH2 0x11DE PUSH1 0x1F DUP10 AND DUP3 PUSH2 0x10F1 JUMP JUMPDEST DUP4 SSTORE POP JUMPDEST PUSH1 0x1 PUSH1 0x2 DUP9 MUL ADD DUP9 SSTORE POP POP POP JUMPDEST POP POP POP POP POP POP JUMP JUMPDEST PUSH0 PUSH1 0x40 DUP3 ADD SWAP1 POP PUSH2 0x120A PUSH0 DUP4 ADD DUP6 PUSH2 0xB2D JUMP JUMPDEST DUP2 DUP2 SUB PUSH1 0x20 DUP4 ADD MSTORE PUSH2 0x121C DUP2 DUP5 PUSH2 0xACC JUMP JUMPDEST SWAP1 POP SWAP4 SWAP3 POP POP POP JUMP JUMPDEST PUSH32 0x456D61696C206E6F7420696E20616C6C6F77656420646F6D61696E0000000000 PUSH0 DUP3 ADD MSTORE POP JUMP JUMPDEST PUSH0 PUSH2 0x1259 PUSH1 0x1B DUP4 PUSH2 0xA9E JUMP JUMPDEST SWAP2 POP PUSH2 0x1264 DUP3 PUSH2 0x1225 JUMP JUMPDEST PUSH1 0x20 DUP3 ADD SWAP1 POP SWAP2 SWAP1 POP JUMP JUMPDEST PUSH0 PUSH1 0x20 DUP3 ADD SWAP1 POP DUP2 DUP2 SUB PUSH0 DUP4 ADD MSTORE PUSH2 0x1286 DUP2 PUSH2 0x124D JUMP JUMPDEST SWAP1 POP SWAP2 SWAP1 POP JUMP JUMPDEST PUSH0 DUP2 SWAP1 POP SWAP3 SWAP2 POP POP JUMP JUMPDEST PUSH0 PUSH2 0x12A1 DUP3 PUSH2 0xA94 JUMP JUMPDEST PUSH2 0x12AB DUP2 DUP6 PUSH2 0x128D JUMP JUMPDEST SWAP4 POP PUSH2 0x12BB DUP2 DUP6 PUSH1 0x20 DUP7 ADD PUSH2 0xAAE JUMP JUMPDEST DUP1 DUP5 ADD SWAP2 POP POP SWAP3 SWAP2 POP POP JUMP JUMPDEST PUSH0 PUSH2 0x12D2 DUP3 DUP5 PUSH2 0x1297 JUMP JUMPDEST SWAP2 POP DUP2 SWAP1 POP SWAP3 SWAP2 POP POP JUMP JUMPDEST PUSH32 0x566F74657220616C726561647920726567697374657265640000000000000000 PUSH0 DUP3 ADD MSTORE POP JUMP JUMPDEST PUSH0 PUSH2 0x1311 PUSH1 0x18 DUP4 PUSH2 0xA9E JUMP JUMPDEST SWAP2 POP PUSH2 0x131C DUP3 PUSH2 0x12DD JUMP JUMPDEST PUSH1 0x20 DUP3 ADD SWAP1 POP SWAP2 SWAP1 POP JUMP JUMPDEST PUSH0 PUSH1 0x20 DUP3 ADD SWAP1 POP DUP2 DUP2 SUB PUSH0 DUP4 ADD MSTORE PUSH2 0x133E DUP2 PUSH2 0x1305 JUMP JUMPDEST SWAP1 POP SWAP2 SWAP1 POP JUMP JUMPDEST PUSH32 0x566F746572206E6F742072656769737465726564000000000000000000000000 PUSH0 DUP3 ADD MSTORE POP JUMP JUMPDEST PUSH0 PUSH2 0x1379 PUSH1 0x14 DUP4 PUSH2 0xA9E JUMP JUMPDEST SWAP2 POP PUSH2 0x1384 DUP3 PUSH2 0x1345 JUMP JUMPDEST PUSH1 0x20 DUP3 ADD SWAP1 POP SWAP2 SWAP1 POP JUMP JUMPDEST PUSH0 PUSH1 0x20 DUP3 ADD SWAP1 POP DUP2 DUP2 SUB PUSH0 DUP4 ADD MSTORE PUSH2 0x13A6 DUP2 PUSH2 0x136D JUMP JUMPDEST SWAP1 POP SWAP2 SWAP1 POP JUMP JUMPDEST PUSH32 0x566F74657220616C726561647920766F74656400000000000000000000000000 PUSH0 DUP3 ADD MSTORE POP JUMP JUMPDEST PUSH0 PUSH2 0x13E1 PUSH1 0x13 DUP4 PUSH2 0xA9E JUMP JUMPDEST SWAP2 POP PUSH2 0x13EC DUP3 PUSH2 0x13AD JUMP JUMPDEST PUSH1 0x20 DUP3 ADD SWAP1 POP SWAP2 SWAP1 POP JUMP JUMPDEST PUSH0 PUSH1 0x20 DUP3 ADD SWAP1 POP DUP2 DUP2 SUB PUSH0 DUP4 ADD MSTORE PUSH2 0x140E DUP2 PUSH2 0x13D5 JUMP JUMPDEST SWAP1 POP SWAP2 SWAP1 POP JUMP JUMPDEST PUSH32 0x496E76616C69642063616E646964617465000000000000000000000000000000 PUSH0 DUP3 ADD MSTORE POP JUMP JUMPDEST PUSH0 PUSH2 0x1449 PUSH1 0x11 DUP4 PUSH2 0xA9E JUMP JUMPDEST SWAP2 POP PUSH2 0x1454 DUP3 PUSH2 0x1415 JUMP JUMPDEST PUSH1 0x20 DUP3 ADD SWAP1 POP SWAP2 SWAP1 POP JUMP JUMPDEST PUSH0 PUSH1 0x20 DUP3 ADD SWAP1 POP DUP2 DUP2 SUB PUSH0 DUP4 ADD MSTORE PUSH2 0x1476 DUP2 PUSH2 0x143D JUMP JUMPDEST SWAP1 POP SWAP2 SWAP1 POP JUMP JUMPDEST PUSH32 0x4E487B7100000000000000000000000000000000000000000000000000000000 PUSH0 MSTORE PUSH1 0x32 PUSH1 0x4 MSTORE PUSH1 0x24 PUSH0 REVERT JUMPDEST PUSH0 PUSH2 0x14B4 DUP3 PUSH2 0xB24 JUMP JUMPDEST SWAP2 POP PUSH2 0x14BF DUP4 PUSH2 0xB24 JUMP JUMPDEST SWAP3 POP DUP3 DUP3 SUB SWAP1 POP DUP2 DUP2 GT ISZERO PUSH2 0x14D7 JUMPI PUSH2 0x14D6 PUSH2 0xF14 JUMP JUMPDEST JUMPDEST SWAP3 SWAP2 POP POP JUMP JUMPDEST PUSH0 PUSH2 0x14E7 DUP3 PUSH2 0xB24 JUMP JUMPDEST SWAP2 POP PUSH2 0x14F2 DUP4 PUSH2 0xB24 JUMP JUMPDEST SWAP3 POP DUP3 DUP3 ADD SWAP1 POP DUP1 DUP3 GT ISZERO PUSH2 0x150A JUMPI PUSH2 0x1509 PUSH2 0xF14 JUMP JUMPDEST JUMPDEST SWAP3 SWAP2 POP POP JUMP INVALID LOG2 PUSH5 0x6970667358 0x22 SLT KECCAK256 EXP 0xB1 0xE SWAP13 0xEF DUP10 0xCE MUL DUPN 0xE1 CALLVALUE 0xFC JUMPF 0xF25A CODESIZE DUP11 0xAB 0xEA 0xB6 CALLVALUE 0xDD 0xD2 PUSH3 0xA60948 0x2D 0xD7 0x1E 0x2E 0xCA PUSH5 0x736F6C6343 STOP ADDMOD 0x1E STOP CALLER "
		},
		"gasEstimates": {
			"creation": {
				"codeDepositCost": "1089200",
				"executionCost": "infinite",
				"totalCost": "infinite"
			},
			"external": {
				"addCandidate(string)": "infinite",
				"admin()": "2573",
				"allowedDomain()": "infinite",
				"candidates(uint256)": "infinite",
				"candidatesCount()": "2448",
				"getVotes(uint256)": "infinite",
				"registerVoter(string)": "infinite",
				"vote(string,uint256)": "infinite",
				"voters(string)": "infinite"
			},
			"internal": {
				"_validateEmailDomain(string memory)": "infinite"
			}
		},
		"methodIdentifiers": {
			"addCandidate(string)": "462e91ec",
			"admin()": "f851a440",
			"allowedDomain()": "0e5a7501",
			"candidates(uint256)": "3477ee2e",
			"candidatesCount()": "2d35a8a2",
			"getVotes(uint256)": "ff981099",
			"registerVoter(string)": "6428a486",
			"vote(string,uint256)": "a6385803",
			"voters(string)": "53fa2e64"
		}
	},
	"abi": [
		{
			"inputs": [
				{
					"internalType": "string",
					"name": "_domain",
					"type": "string"
				}
			],
			"stateMutability": "nonpayable",
			"type": "constructor"
		},
		{
			"anonymous": false,
			"inputs": [
				{
					"indexed": false,
					"internalType": "string",
					"name": "newDomain",
					"type": "string"
				}
			],
			"name": "AllowedDomainChanged",
			"type": "event"
		},
		{
			"anonymous": false,
			"inputs": [
				{
					"indexed": false,
					"internalType": "uint256",
					"name": "candidateId",
					"type": "uint256"
				},
				{
					"indexed": false,
					"internalType": "string",
					"name": "name",
					"type": "string"
				}
			],
			"name": "CandidateAdded",
			"type": "event"
		},
		{
			"anonymous": false,
			"inputs": [
				{
					"indexed": false,
					"internalType": "string",
					"name": "email",
					"type": "string"
				},
				{
					"indexed": false,
					"internalType": "uint256",
					"name": "candidateId",
					"type": "uint256"
				}
			],
			"name": "VoteCast",
			"type": "event"
		},
		{
			"anonymous": false,
			"inputs": [
				{
					"indexed": false,
					"internalType": "string",
					"name": "email",
					"type": "string"
				}
			],
			"name": "VoterRegistered",
			"type": "event"
		},
		{
			"inputs": [
				{
					"internalType": "string",
					"name": "_name",
					"type": "string"
				}
			],
			"name": "addCandidate",
			"outputs": [],
			"stateMutability": "nonpayable",
			"type": "function"
		},
		{
			"inputs": [],
			"name": "admin",
			"outputs": [
				{
					"internalType": "address",
					"name": "",
					"type": "address"
				}
			],
			"stateMutability": "view",
			"type": "function"
		},
		{
			"inputs": [],
			"name": "allowedDomain",
			"outputs": [
				{
					"internalType": "string",
					"name": "",
					"type": "string"
				}
			],
			"stateMutability": "view",
			"type": "function"
		},
		{
			"inputs": [
				{
					"internalType": "uint256",
					"name": "",
					"type": "uint256"
				}
			],
			"name": "candidates",
			"outputs": [
				{
					"internalType": "string",
					"name": "name",
					"type": "string"
				},
				{
					"internalType": "uint256",
					"name": "voteCount",
					"type": "uint256"
				}
			],
			"stateMutability": "view",
			"type": "function"
		},
		{
			"inputs": [],
			"name": "candidatesCount",
			"outputs": [
				{
					"internalType": "uint256",
					"name": "",
					"type": "uint256"
				}
			],
			"stateMutability": "view",
			"type": "function"
		},
		{
			"inputs": [
				{
					"internalType": "uint256",
					"name": "_candidateId",
					"type": "uint256"
				}
			],
			"name": "getVotes",
			"outputs": [
				{
					"internalType": "uint256",
					"name": "",
					"type": "uint256"
				}
			],
			"stateMutability": "view",
			"type": "function"
		},
		{
			"inputs": [
				{
					"internalType": "string",
					"name": "_email",
					"type": "string"
				}
			],
			"name": "registerVoter",
			"outputs": [],
			"stateMutability": "nonpayable",
			"type": "function"
		},
		{
			"inputs": [
				{
					"internalType": "string",
					"name": "_email",
					"type": "string"
				},
				{
					"internalType": "uint256",
					"name": "_candidateId",
					"type": "uint256"
				}
			],
			"name": "vote",
			"outputs": [],
			"stateMutability": "nonpayable",
			"type": "function"
		},
		{
			"inputs": [
				{
					"internalType": "string",
					"name": "",
					"type": "string"
				}
			],
			"name": "voters",
			"outputs": [
				{
					"internalType": "bool",
					"name": "isRegistered",
					"type": "bool"
				},
				{
					"internalType": "bool",
					"name": "hasVoted",
					"type": "bool"
				}
			],
			"stateMutability": "view",
			"type": "function"
		}
	]
}